{
  "abi": [
    {
      "inputs": [
        {
          "internalType": "string[]",
          "name": "candidatesNames",
          "type": "string[]"
        },
        {
          "internalType": "address[]",
          "name": "voterAddresses",
          "type": "address[]"
        }
      ],
      "stateMutability": "nonpayable",
      "type": "constructor"
    },
    {
      "anonymous": false,
      "inputs": [
        {
          "indexed": false,
          "internalType": "string",
          "name": "",
          "type": "string"
        },
        {
          "indexed": false,
          "internalType": "uint256",
          "name": "",
          "type": "uint256"
        },
        {
          "indexed": false,
          "internalType": "uint256",
          "name": "",
          "type": "uint256"
        }
      ],
      "name": "AnnounceWinner",
      "type": "event"
    },
    {
      "anonymous": false,
      "inputs": [
        {
          "components": [
            {
              "internalType": "string",
              "name": "name",
              "type": "string"
            },
            {
              "internalType": "uint256",
              "name": "voteCount",
              "type": "uint256"
            },
            {
              "internalType": "uint256",
              "name": "votePercentage",
              "type": "uint256"
            }
          ],
          "indexed": false,
          "internalType": "struct President.Candidate[]",
          "name": "",
          "type": "tuple[]"
        }
      ],
      "name": "ShowCandidates",
      "type": "event"
    },
    {
      "anonymous": false,
      "inputs": [
        {
          "components": [
            {
              "internalType": "address",
              "name": "votersAddress",
              "type": "address"
            },
            {
              "internalType": "bool",
              "name": "voted",
              "type": "bool"
            },
            {
              "internalType": "uint256",
              "name": "vote",
              "type": "uint256"
            }
          ],
          "indexed": false,
          "internalType": "struct President.Voter[]",
          "name": "",
          "type": "tuple[]"
        }
      ],
      "name": "ShowVoters",
      "type": "event"
    },
    {
      "inputs": [
        {
          "internalType": "uint256",
          "name": "",
          "type": "uint256"
        }
      ],
      "name": "candidates",
      "outputs": [
        {
          "internalType": "string",
          "name": "name",
          "type": "string"
        },
        {
          "internalType": "uint256",
          "name": "voteCount",
          "type": "uint256"
        },
        {
          "internalType": "uint256",
          "name": "votePercentage",
          "type": "uint256"
        }
      ],
      "stateMutability": "view",
      "type": "function"
    },
    {
      "inputs": [
        {
          "internalType": "address",
          "name": "_voter",
          "type": "address"
        },
        {
          "internalType": "uint256",
          "name": "_candidate",
          "type": "uint256"
        }
      ],
      "name": "castVote",
      "outputs": [],
      "stateMutability": "nonpayable",
      "type": "function"
    },
    {
      "inputs": [],
      "name": "getCandidatesResults",
      "outputs": [],
      "stateMutability": "nonpayable",
      "type": "function"
    },
    {
      "inputs": [],
      "name": "getVotersResults",
      "outputs": [],
      "stateMutability": "nonpayable",
      "type": "function"
    },
    {
      "inputs": [
        {
          "internalType": "uint256",
          "name": "",
          "type": "uint256"
        }
      ],
      "name": "registeredVoters",
      "outputs": [
        {
          "internalType": "address",
          "name": "",
          "type": "address"
        }
      ],
      "stateMutability": "view",
      "type": "function"
    },
    {
      "inputs": [],
      "name": "sendData",
      "outputs": [],
      "stateMutability": "nonpayable",
      "type": "function"
    },
    {
      "inputs": [
        {
          "internalType": "uint256",
          "name": "",
          "type": "uint256"
        }
      ],
      "name": "tally",
      "outputs": [
        {
          "internalType": "uint256",
          "name": "",
          "type": "uint256"
        }
      ],
      "stateMutability": "view",
      "type": "function"
    },
    {
      "inputs": [
        {
          "internalType": "uint256",
          "name": "",
          "type": "uint256"
        }
      ],
      "name": "voterRegister",
      "outputs": [
        {
          "internalType": "address",
          "name": "votersAddress",
          "type": "address"
        },
        {
          "internalType": "bool",
          "name": "voted",
          "type": "bool"
        },
        {
          "internalType": "uint256",
          "name": "vote",
          "type": "uint256"
        }
      ],
      "stateMutability": "view",
      "type": "function"
    },
    {
      "inputs": [
        {
          "internalType": "address",
          "name": "",
          "type": "address"
        }
      ],
      "name": "voters",
      "outputs": [
        {
          "internalType": "address",
          "name": "votersAddress",
          "type": "address"
        },
        {
          "internalType": "bool",
          "name": "voted",
          "type": "bool"
        },
        {
          "internalType": "uint256",
          "name": "vote",
          "type": "uint256"
        }
      ],
      "stateMutability": "view",
      "type": "function"
    }
  ],
  "bytecode": "60806040523480156200001157600080fd5b50604051620015493803806200154983398101604081905262000034916200034a565b60005b8251811015620000d85760026040518060600160405280858481518110620000635762000063620004aa565b60209081029190910181015182526000828201819052604090920182905283546001810185559382529081902082518051939460030290910192620000ac9284920190620001ab565b506020820151600182015560409091015160029091015580620000cf81620004c0565b91505062000037565b5060005b81518110156200017a5762000113828281518110620000ff57620000ff620004aa565b60200260200101516200018360201b60201c565b60058282815181106200012a576200012a620004aa565b60209081029190910181015182546001810184556000938452919092200180546001600160a01b0319166001600160a01b03909216919091179055806200017181620004c0565b915050620000dc565b50505062000527565b6001600160a01b03166000908152600360205260408120805460ff60a01b1916815560010155565b828054620001b990620004ea565b90600052602060002090601f016020900481019282620001dd576000855562000228565b82601f10620001f857805160ff191683800117855562000228565b8280016001018555821562000228579182015b82811115620002285782518255916020019190600101906200020b565b50620002369291506200023a565b5090565b5b808211156200023657600081556001016200023b565b634e487b7160e01b600052604160045260246000fd5b604051601f8201601f191681016001600160401b038111828210171562000292576200029262000251565b604052919050565b60006001600160401b03821115620002b657620002b662000251565b5060051b60200190565b600082601f830112620002d257600080fd5b81516020620002eb620002e5836200029a565b62000267565b82815260059290921b840181019181810190868411156200030b57600080fd5b8286015b848110156200033f5780516001600160a01b0381168114620003315760008081fd5b83529183019183016200030f565b509695505050505050565b60008060408084860312156200035f57600080fd5b83516001600160401b03808211156200037757600080fd5b8186019150601f87818401126200038d57600080fd5b82516020620003a0620002e5836200029a565b82815260059290921b8501810191818101908b841115620003c057600080fd5b8287015b848110156200047457805187811115620003de5760008081fd5b8801603f81018e13620003f15760008081fd5b848101518881111562000408576200040862000251565b6200041b818901601f1916870162000267565b8181528f8c838501011115620004315760008081fd5b60005b8281101562000451578381018d0151828201890152870162000434565b82811115620004635760008884840101525b5085525050918301918301620003c4565b50918a0151919850909550505050808311156200049057600080fd5b5050620004a085828601620002c0565b9150509250929050565b634e487b7160e01b600052603260045260246000fd5b6000600019821415620004e357634e487b7160e01b600052601160045260246000fd5b5060010190565b600181811c90821680620004ff57607f821691505b602082108114156200052157634e487b7160e01b600052602260045260246000fd5b50919050565b61101280620005376000396000f3fe608060405234801561001057600080fd5b50600436106100935760003560e01c80638911be30116100665780638911be30146100fc578063a3ec138d14610104578063e8f7d8f614610166578063ed8b6b3114610179578063ff91bb45146101a757600080fd5b80632436e06b146100985780633477ee2e146100c85780634df3a6fe146100ea578063875dea03146100f4575b600080fd5b6100ab6100a6366004610ce9565b6101ba565b6040516001600160a01b0390911681526020015b60405180910390f35b6100db6100d6366004610ce9565b6101e4565b6040516100bf93929190610d4f565b6100f26102a6565b005b6100f26102ef565b6100f261032d565b610141610112366004610d90565b600360205260009081526040902080546001909101546001600160a01b03821691600160a01b900460ff169083565b604080516001600160a01b0390941684529115156020840152908201526060016100bf565b610141610174366004610ce9565b610380565b610199610187366004610ce9565b60046020526000908152604090205481565b6040519081526020016100bf565b6100f26101b5366004610db2565b6103c3565b600581815481106101ca57600080fd5b6000918252602090912001546001600160a01b0316905081565b600281815481106101f457600080fd5b906000526020600020906003020160009150905080600001805461021790610ddc565b80601f016020809104026020016040519081016040528092919081815260200182805461024390610ddc565b80156102905780601f1061026557610100808354040283529160200191610290565b820191906000526020600020905b81548152906001019060200180831161027357829003601f168201915b5050505050908060010154908060020154905083565b60606102b06105cf565b6040519092507f0466d9fb4de5473511cc3bd190dfd3e522e783c9165f3d5cc44e6c2da140e98b91506102e4908390610e17565b60405180910390a150565b60606102f96105cf565b50809150507f1927b141f460490e7769a6039fdb226783cc07deb0b34b733289ffa4ed65fced816040516102e49190610e98565b600080600061033a610946565b9250925092507ff5a14047b2c5509302998b7da5ccbf90331d63e4d300467eeb31443c9ff640c983838360405161037393929190610d4f565b60405180910390a1505050565b6006818154811061039057600080fd5b6000918252602090912060029091020180546001909101546001600160a01b0382169250600160a01b90910460ff169083565b6103cc82610ad0565b6104155760405162461bcd60e51b81526020600482015260156024820152742737ba1030b71032b634b3b4b13632903b37ba32b960591b60448201526064015b60405180910390fd5b6001600160a01b038216600090815260036020526040902054600160a01b900460ff16156104755760405162461bcd60e51b815260206004820152600d60248201526c105b1c9958591e481d9bdd1959609a1b604482015260640161040c565b6001600160a01b0382166000908152600360205260409020805460ff60a01b1916600160a01b178155600190810182905581141561053657600160008181526004602052600080516020610f9d83398151915280549091906104d8908490610f12565b90915550506000546104eb906001610f12565b6000908155600181526004602052600080516020610f9d83398151915254600280549192909161051d5761051d610f2a565b9060005260206000209060030201600101819055505050565b6001600160a01b0382166000908152600360205260409020600101546002141561009357600260009081526004602052600080516020610fbd833981519152805460019290610586908490610f12565b9091555050600054610599906001610f12565b60009081556002908190526004602052600080516020610fbd833981519152548154909190600190811061051d5761051d610f2a565b6060806105de60066000610c9b565b60055460015560005b60055481101561073257600660405180606001604052806005848154811061061157610611610f2a565b9060005260206000200160009054906101000a90046001600160a01b03166001600160a01b03168152602001600360006005868154811061065457610654610f2a565b60009182526020808320909101546001600160a01b0316835282810193909352604090910181205460ff600160a01b909104161515835260058054939092019260039290879081106106a8576106a8610f2a565b60009182526020808320909101546001600160a01b0390811684528382019490945260409283018220600190810154909552865480860188559682529081902085516002909702018054918601511515600160a01b026001600160a81b0319909216969093169590951794909417815591909201519101558061072a81610f40565b9150506105e7565b5060005b6002548110156107b7576001546002828154811061075657610756610f2a565b90600052602060002090600302016001015460646107749190610f5b565b61077e9190610f7a565b6002828154811061079157610791610f2a565b6000918252602090912060026003909202010155806107af81610f40565b915050610736565b506006600281805480602002602001604051908101604052809291908181526020016000905b82821015610839576000848152602090819020604080516060810182526002860290920180546001600160a01b0381168452600160a01b900460ff161515838501526001908101549183019190915290835290920191016107dd565b50505050915080805480602002602001604051908101604052809291908181526020016000905b82821015610938578382906000526020600020906003020160405180606001604052908160008201805461089390610ddc565b80601f01602080910402602001604051908101604052809291908181526020018280546108bf90610ddc565b801561090c5780601f106108e15761010080835404028352916020019161090c565b820191906000526020600020905b8154815290600101906020018083116108ef57829003601f168201915b505050505081526020016001820154815260200160028201548152505081526020019060010190610860565b505050509050915091509091565b60606000806000610955610b3a565b905060006109616105cf565b91505060608060008085600114156109e7578460008151811061098657610986610f2a565b6020026020010151600001519250846000815181106109a7576109a7610f2a565b6020026020010151602001519150846000815181106109c8576109c8610f2a565b6020908102919091010151604001519299919850919650945050505050565b8560021415610a455784600181518110610a0357610a03610f2a565b602002602001015160000151925084600181518110610a2457610a24610f2a565b6020026020010151602001519150846001815181106109c8576109c8610f2a565b8560031415610ac5576040518060400160405280600981526020016849747320612074696560b81b815250935084600081518110610a8557610a85610f2a565b602002602001015160200151915084600081518110610aa657610aa6610f2a565b6020908102919091010151604001519399919850929650945050505050565b505050505050909192565b6000805b600554811015610b3157826001600160a01b031660058281548110610afb57610afb610f2a565b6000918252602090912001546001600160a01b03161415610b1f5750600192915050565b80610b2981610f40565b915050610ad4565b50600092915050565b600080546004602052600080516020610fbd8339815191525460018352600080516020610f9d83398151915254610b719190610f12565b14610bb25760405162461bcd60e51b815260206004820152601160248201527022b632b1ba34b7b7103737ba103330b4b960791b604482015260640161040c565b603c610bbc610c70565b1015610bfe5760405162461bcd60e51b81526020600482015260116024820152704e6f7420456e6f75676820766f7465727360781b604482015260640161040c565b6004602052600080516020610fbd833981519152546001600052600080516020610f9d833981519152541115610c345750600190565b6004602052600080516020610f9d833981519152546002600052600080516020610fbd833981519152541115610c6a5750600290565b50600390565b60055460018190556000805490918291610c8b906064610f5b565b610c959190610f7a565b92915050565b5080546000825560020290600052602060002090810190610cbc9190610cbf565b50565b5b80821115610ce55780546001600160a81b031916815560006001820155600201610cc0565b5090565b600060208284031215610cfb57600080fd5b5035919050565b6000815180845260005b81811015610d2857602081850181015186830182015201610d0c565b81811115610d3a576000602083870101525b50601f01601f19169290920160200192915050565b606081526000610d626060830186610d02565b60208301949094525060400152919050565b80356001600160a01b0381168114610d8b57600080fd5b919050565b600060208284031215610da257600080fd5b610dab82610d74565b9392505050565b60008060408385031215610dc557600080fd5b610dce83610d74565b946020939093013593505050565b600181811c90821680610df057607f821691505b60208210811415610e1157634e487b7160e01b600052602260045260246000fd5b50919050565b60006020808301818452808551808352604092508286019150828160051b87010184880160005b83811015610e8a57603f19898403018552815160608151818652610e6482870182610d02565b838b0151878c015292890151958901959095525094870194925090860190600101610e3e565b509098975050505050505050565b602080825282518282018190526000919060409081850190868401855b82811015610eef57815180516001600160a01b03168552868101511515878601528501518585015260609093019290850190600101610eb5565b5091979650505050505050565b634e487b7160e01b600052601160045260246000fd5b60008219821115610f2557610f25610efc565b500190565b634e487b7160e01b600052603260045260246000fd5b6000600019821415610f5457610f54610efc565b5060010190565b6000816000190483118215151615610f7557610f75610efc565b500290565b600082610f9757634e487b7160e01b600052601260045260246000fd5b50049056feabd6e7cb50984ff9c2f3e18a2660c3353dadf4e3291deeb275dae2cd1e44fe0591da3fd0782e51c6b3986e9e672fd566868e71f3dbc2d6c2cd6fbb3e361af2a7a26469706673582212208e7e747c7df63f7613c04fa9d3fbd7d05d121cbca246675b54363fc5609e06cb64736f6c634300080b0033",
  "bytecodeSha1": "62479ace722a9d651ba4b19f18b681f351685d8b",
  "compiler": {
    "evm_version": "istanbul",
    "optimizer": {
      "enabled": true,
      "runs": 200
    },
    "version": "0.8.11+commit.d7f03943"
  },
  "contractName": "President",
  "language": "Solidity",
  "natspec": {
    "kind": "dev",
    "methods": {},
    "version": 1
  },
  "opcodes": "PUSH1 0x80 PUSH1 0x40 MSTORE CALLVALUE DUP1 ISZERO PUSH2 0x10 JUMPI PUSH1 0x0 DUP1 REVERT JUMPDEST POP PUSH1 0x4 CALLDATASIZE LT PUSH2 0x93 JUMPI PUSH1 0x0 CALLDATALOAD PUSH1 0xE0 SHR DUP1 PUSH4 0x8911BE30 GT PUSH2 0x66 JUMPI DUP1 PUSH4 0x8911BE30 EQ PUSH2 0xFC JUMPI DUP1 PUSH4 0xA3EC138D EQ PUSH2 0x104 JUMPI DUP1 PUSH4 0xE8F7D8F6 EQ PUSH2 0x166 JUMPI DUP1 PUSH4 0xED8B6B31 EQ PUSH2 0x179 JUMPI DUP1 PUSH4 0xFF91BB45 EQ PUSH2 0x1A7 JUMPI PUSH1 0x0 DUP1 REVERT JUMPDEST DUP1 PUSH4 0x2436E06B EQ PUSH2 0x98 JUMPI DUP1 PUSH4 0x3477EE2E EQ PUSH2 0xC8 JUMPI DUP1 PUSH4 0x4DF3A6FE EQ PUSH2 0xEA JUMPI DUP1 PUSH4 0x875DEA03 EQ PUSH2 0xF4 JUMPI JUMPDEST PUSH1 0x0 DUP1 REVERT JUMPDEST PUSH2 0xAB PUSH2 0xA6 CALLDATASIZE PUSH1 0x4 PUSH2 0xCE9 JUMP JUMPDEST PUSH2 0x1BA JUMP JUMPDEST PUSH1 0x40 MLOAD PUSH1 0x1 PUSH1 0x1 PUSH1 0xA0 SHL SUB SWAP1 SWAP2 AND DUP2 MSTORE PUSH1 0x20 ADD JUMPDEST PUSH1 0x40 MLOAD DUP1 SWAP2 SUB SWAP1 RETURN JUMPDEST PUSH2 0xDB PUSH2 0xD6 CALLDATASIZE PUSH1 0x4 PUSH2 0xCE9 JUMP JUMPDEST PUSH2 0x1E4 JUMP JUMPDEST PUSH1 0x40 MLOAD PUSH2 0xBF SWAP4 SWAP3 SWAP2 SWAP1 PUSH2 0xD4F JUMP JUMPDEST PUSH2 0xF2 PUSH2 0x2A6 JUMP JUMPDEST STOP JUMPDEST PUSH2 0xF2 PUSH2 0x2EF JUMP JUMPDEST PUSH2 0xF2 PUSH2 0x32D JUMP JUMPDEST PUSH2 0x141 PUSH2 0x112 CALLDATASIZE PUSH1 0x4 PUSH2 0xD90 JUMP JUMPDEST PUSH1 0x3 PUSH1 0x20 MSTORE PUSH1 0x0 SWAP1 DUP2 MSTORE PUSH1 0x40 SWAP1 KECCAK256 DUP1 SLOAD PUSH1 0x1 SWAP1 SWAP2 ADD SLOAD PUSH1 0x1 PUSH1 0x1 PUSH1 0xA0 SHL SUB DUP3 AND SWAP2 PUSH1 0x1 PUSH1 0xA0 SHL SWAP1 DIV PUSH1 0xFF AND SWAP1 DUP4 JUMP JUMPDEST PUSH1 0x40 DUP1 MLOAD PUSH1 0x1 PUSH1 0x1 PUSH1 0xA0 SHL SUB SWAP1 SWAP5 AND DUP5 MSTORE SWAP2 ISZERO ISZERO PUSH1 0x20 DUP5 ADD MSTORE SWAP1 DUP3 ADD MSTORE PUSH1 0x60 ADD PUSH2 0xBF JUMP JUMPDEST PUSH2 0x141 PUSH2 0x174 CALLDATASIZE PUSH1 0x4 PUSH2 0xCE9 JUMP JUMPDEST PUSH2 0x380 JUMP JUMPDEST PUSH2 0x199 PUSH2 0x187 CALLDATASIZE PUSH1 0x4 PUSH2 0xCE9 JUMP JUMPDEST PUSH1 0x4 PUSH1 0x20 MSTORE PUSH1 0x0 SWAP1 DUP2 MSTORE PUSH1 0x40 SWAP1 KECCAK256 SLOAD DUP2 JUMP JUMPDEST PUSH1 0x40 MLOAD SWAP1 DUP2 MSTORE PUSH1 0x20 ADD PUSH2 0xBF JUMP JUMPDEST PUSH2 0xF2 PUSH2 0x1B5 CALLDATASIZE PUSH1 0x4 PUSH2 0xDB2 JUMP JUMPDEST PUSH2 0x3C3 JUMP JUMPDEST PUSH1 0x5 DUP2 DUP2 SLOAD DUP2 LT PUSH2 0x1CA JUMPI PUSH1 0x0 DUP1 REVERT JUMPDEST PUSH1 0x0 SWAP2 DUP3 MSTORE PUSH1 0x20 SWAP1 SWAP2 KECCAK256 ADD SLOAD PUSH1 0x1 PUSH1 0x1 PUSH1 0xA0 SHL SUB AND SWAP1 POP DUP2 JUMP JUMPDEST PUSH1 0x2 DUP2 DUP2 SLOAD DUP2 LT PUSH2 0x1F4 JUMPI PUSH1 0x0 DUP1 REVERT JUMPDEST SWAP1 PUSH1 0x0 MSTORE PUSH1 0x20 PUSH1 0x0 KECCAK256 SWAP1 PUSH1 0x3 MUL ADD PUSH1 0x0 SWAP2 POP SWAP1 POP DUP1 PUSH1 0x0 ADD DUP1 SLOAD PUSH2 0x217 SWAP1 PUSH2 0xDDC JUMP JUMPDEST DUP1 PUSH1 0x1F ADD PUSH1 0x20 DUP1 SWAP2 DIV MUL PUSH1 0x20 ADD PUSH1 0x40 MLOAD SWAP1 DUP2 ADD PUSH1 0x40 MSTORE DUP1 SWAP3 SWAP2 SWAP1 DUP2 DUP2 MSTORE PUSH1 0x20 ADD DUP3 DUP1 SLOAD PUSH2 0x243 SWAP1 PUSH2 0xDDC JUMP JUMPDEST DUP1 ISZERO PUSH2 0x290 JUMPI DUP1 PUSH1 0x1F LT PUSH2 0x265 JUMPI PUSH2 0x100 DUP1 DUP4 SLOAD DIV MUL DUP4 MSTORE SWAP2 PUSH1 0x20 ADD SWAP2 PUSH2 0x290 JUMP JUMPDEST DUP3 ADD SWAP2 SWAP1 PUSH1 0x0 MSTORE PUSH1 0x20 PUSH1 0x0 KECCAK256 SWAP1 JUMPDEST DUP2 SLOAD DUP2 MSTORE SWAP1 PUSH1 0x1 ADD SWAP1 PUSH1 0x20 ADD DUP1 DUP4 GT PUSH2 0x273 JUMPI DUP3 SWAP1 SUB PUSH1 0x1F AND DUP3 ADD SWAP2 JUMPDEST POP POP POP POP POP SWAP1 DUP1 PUSH1 0x1 ADD SLOAD SWAP1 DUP1 PUSH1 0x2 ADD SLOAD SWAP1 POP DUP4 JUMP JUMPDEST PUSH1 0x60 PUSH2 0x2B0 PUSH2 0x5CF JUMP JUMPDEST PUSH1 0x40 MLOAD SWAP1 SWAP3 POP PUSH32 0x466D9FB4DE5473511CC3BD190DFD3E522E783C9165F3D5CC44E6C2DA140E98B SWAP2 POP PUSH2 0x2E4 SWAP1 DUP4 SWAP1 PUSH2 0xE17 JUMP JUMPDEST PUSH1 0x40 MLOAD DUP1 SWAP2 SUB SWAP1 LOG1 POP JUMP JUMPDEST PUSH1 0x60 PUSH2 0x2F9 PUSH2 0x5CF JUMP JUMPDEST POP DUP1 SWAP2 POP POP PUSH32 0x1927B141F460490E7769A6039FDB226783CC07DEB0B34B733289FFA4ED65FCED DUP2 PUSH1 0x40 MLOAD PUSH2 0x2E4 SWAP2 SWAP1 PUSH2 0xE98 JUMP JUMPDEST PUSH1 0x0 DUP1 PUSH1 0x0 PUSH2 0x33A PUSH2 0x946 JUMP JUMPDEST SWAP3 POP SWAP3 POP SWAP3 POP PUSH32 0xF5A14047B2C5509302998B7DA5CCBF90331D63E4D300467EEB31443C9FF640C9 DUP4 DUP4 DUP4 PUSH1 0x40 MLOAD PUSH2 0x373 SWAP4 SWAP3 SWAP2 SWAP1 PUSH2 0xD4F JUMP JUMPDEST PUSH1 0x40 MLOAD DUP1 SWAP2 SUB SWAP1 LOG1 POP POP POP JUMP JUMPDEST PUSH1 0x6 DUP2 DUP2 SLOAD DUP2 LT PUSH2 0x390 JUMPI PUSH1 0x0 DUP1 REVERT JUMPDEST PUSH1 0x0 SWAP2 DUP3 MSTORE PUSH1 0x20 SWAP1 SWAP2 KECCAK256 PUSH1 0x2 SWAP1 SWAP2 MUL ADD DUP1 SLOAD PUSH1 0x1 SWAP1 SWAP2 ADD SLOAD PUSH1 0x1 PUSH1 0x1 PUSH1 0xA0 SHL SUB DUP3 AND SWAP3 POP PUSH1 0x1 PUSH1 0xA0 SHL SWAP1 SWAP2 DIV PUSH1 0xFF AND SWAP1 DUP4 JUMP JUMPDEST PUSH2 0x3CC DUP3 PUSH2 0xAD0 JUMP JUMPDEST PUSH2 0x415 JUMPI PUSH1 0x40 MLOAD PUSH3 0x461BCD PUSH1 0xE5 SHL DUP2 MSTORE PUSH1 0x20 PUSH1 0x4 DUP3 ADD MSTORE PUSH1 0x15 PUSH1 0x24 DUP3 ADD MSTORE PUSH21 0x2737BA1030B71032B634B3B4B13632903B37BA32B9 PUSH1 0x59 SHL PUSH1 0x44 DUP3 ADD MSTORE PUSH1 0x64 ADD JUMPDEST PUSH1 0x40 MLOAD DUP1 SWAP2 SUB SWAP1 REVERT JUMPDEST PUSH1 0x1 PUSH1 0x1 PUSH1 0xA0 SHL SUB DUP3 AND PUSH1 0x0 SWAP1 DUP2 MSTORE PUSH1 0x3 PUSH1 0x20 MSTORE PUSH1 0x40 SWAP1 KECCAK256 SLOAD PUSH1 0x1 PUSH1 0xA0 SHL SWAP1 DIV PUSH1 0xFF AND ISZERO PUSH2 0x475 JUMPI PUSH1 0x40 MLOAD PUSH3 0x461BCD PUSH1 0xE5 SHL DUP2 MSTORE PUSH1 0x20 PUSH1 0x4 DUP3 ADD MSTORE PUSH1 0xD PUSH1 0x24 DUP3 ADD MSTORE PUSH13 0x105B1C9958591E481D9BDD1959 PUSH1 0x9A SHL PUSH1 0x44 DUP3 ADD MSTORE PUSH1 0x64 ADD PUSH2 0x40C JUMP JUMPDEST PUSH1 0x1 PUSH1 0x1 PUSH1 0xA0 SHL SUB DUP3 AND PUSH1 0x0 SWAP1 DUP2 MSTORE PUSH1 0x3 PUSH1 0x20 MSTORE PUSH1 0x40 SWAP1 KECCAK256 DUP1 SLOAD PUSH1 0xFF PUSH1 0xA0 SHL NOT AND PUSH1 0x1 PUSH1 0xA0 SHL OR DUP2 SSTORE PUSH1 0x1 SWAP1 DUP2 ADD DUP3 SWAP1 SSTORE DUP2 EQ ISZERO PUSH2 0x536 JUMPI PUSH1 0x1 PUSH1 0x0 DUP2 DUP2 MSTORE PUSH1 0x4 PUSH1 0x20 MSTORE PUSH1 0x0 DUP1 MLOAD PUSH1 0x20 PUSH2 0xF9D DUP4 CODECOPY DUP2 MLOAD SWAP2 MSTORE DUP1 SLOAD SWAP1 SWAP2 SWAP1 PUSH2 0x4D8 SWAP1 DUP5 SWAP1 PUSH2 0xF12 JUMP JUMPDEST SWAP1 SWAP2 SSTORE POP POP PUSH1 0x0 SLOAD PUSH2 0x4EB SWAP1 PUSH1 0x1 PUSH2 0xF12 JUMP JUMPDEST PUSH1 0x0 SWAP1 DUP2 SSTORE PUSH1 0x1 DUP2 MSTORE PUSH1 0x4 PUSH1 0x20 MSTORE PUSH1 0x0 DUP1 MLOAD PUSH1 0x20 PUSH2 0xF9D DUP4 CODECOPY DUP2 MLOAD SWAP2 MSTORE SLOAD PUSH1 0x2 DUP1 SLOAD SWAP2 SWAP3 SWAP1 SWAP2 PUSH2 0x51D JUMPI PUSH2 0x51D PUSH2 0xF2A JUMP JUMPDEST SWAP1 PUSH1 0x0 MSTORE PUSH1 0x20 PUSH1 0x0 KECCAK256 SWAP1 PUSH1 0x3 MUL ADD PUSH1 0x1 ADD DUP2 SWAP1 SSTORE POP POP POP JUMP JUMPDEST PUSH1 0x1 PUSH1 0x1 PUSH1 0xA0 SHL SUB DUP3 AND PUSH1 0x0 SWAP1 DUP2 MSTORE PUSH1 0x3 PUSH1 0x20 MSTORE PUSH1 0x40 SWAP1 KECCAK256 PUSH1 0x1 ADD SLOAD PUSH1 0x2 EQ ISZERO PUSH2 0x93 JUMPI PUSH1 0x2 PUSH1 0x0 SWAP1 DUP2 MSTORE PUSH1 0x4 PUSH1 0x20 MSTORE PUSH1 0x0 DUP1 MLOAD PUSH1 0x20 PUSH2 0xFBD DUP4 CODECOPY DUP2 MLOAD SWAP2 MSTORE DUP1 SLOAD PUSH1 0x1 SWAP3 SWAP1 PUSH2 0x586 SWAP1 DUP5 SWAP1 PUSH2 0xF12 JUMP JUMPDEST SWAP1 SWAP2 SSTORE POP POP PUSH1 0x0 SLOAD PUSH2 0x599 SWAP1 PUSH1 0x1 PUSH2 0xF12 JUMP JUMPDEST PUSH1 0x0 SWAP1 DUP2 SSTORE PUSH1 0x2 SWAP1 DUP2 SWAP1 MSTORE PUSH1 0x4 PUSH1 0x20 MSTORE PUSH1 0x0 DUP1 MLOAD PUSH1 0x20 PUSH2 0xFBD DUP4 CODECOPY DUP2 MLOAD SWAP2 MSTORE SLOAD DUP2 SLOAD SWAP1 SWAP2 SWAP1 PUSH1 0x1 SWAP1 DUP2 LT PUSH2 0x51D JUMPI PUSH2 0x51D PUSH2 0xF2A JUMP JUMPDEST PUSH1 0x60 DUP1 PUSH2 0x5DE PUSH1 0x6 PUSH1 0x0 PUSH2 0xC9B JUMP JUMPDEST PUSH1 0x5 SLOAD PUSH1 0x1 SSTORE PUSH1 0x0 JUMPDEST PUSH1 0x5 SLOAD DUP2 LT ISZERO PUSH2 0x732 JUMPI PUSH1 0x6 PUSH1 0x40 MLOAD DUP1 PUSH1 0x60 ADD PUSH1 0x40 MSTORE DUP1 PUSH1 0x5 DUP5 DUP2 SLOAD DUP2 LT PUSH2 0x611 JUMPI PUSH2 0x611 PUSH2 0xF2A JUMP JUMPDEST SWAP1 PUSH1 0x0 MSTORE PUSH1 0x20 PUSH1 0x0 KECCAK256 ADD PUSH1 0x0 SWAP1 SLOAD SWAP1 PUSH2 0x100 EXP SWAP1 DIV PUSH1 0x1 PUSH1 0x1 PUSH1 0xA0 SHL SUB AND PUSH1 0x1 PUSH1 0x1 PUSH1 0xA0 SHL SUB AND DUP2 MSTORE PUSH1 0x20 ADD PUSH1 0x3 PUSH1 0x0 PUSH1 0x5 DUP7 DUP2 SLOAD DUP2 LT PUSH2 0x654 JUMPI PUSH2 0x654 PUSH2 0xF2A JUMP JUMPDEST PUSH1 0x0 SWAP2 DUP3 MSTORE PUSH1 0x20 DUP1 DUP4 KECCAK256 SWAP1 SWAP2 ADD SLOAD PUSH1 0x1 PUSH1 0x1 PUSH1 0xA0 SHL SUB AND DUP4 MSTORE DUP3 DUP2 ADD SWAP4 SWAP1 SWAP4 MSTORE PUSH1 0x40 SWAP1 SWAP2 ADD DUP2 KECCAK256 SLOAD PUSH1 0xFF PUSH1 0x1 PUSH1 0xA0 SHL SWAP1 SWAP2 DIV AND ISZERO ISZERO DUP4 MSTORE PUSH1 0x5 DUP1 SLOAD SWAP4 SWAP1 SWAP3 ADD SWAP3 PUSH1 0x3 SWAP3 SWAP1 DUP8 SWAP1 DUP2 LT PUSH2 0x6A8 JUMPI PUSH2 0x6A8 PUSH2 0xF2A JUMP JUMPDEST PUSH1 0x0 SWAP2 DUP3 MSTORE PUSH1 0x20 DUP1 DUP4 KECCAK256 SWAP1 SWAP2 ADD SLOAD PUSH1 0x1 PUSH1 0x1 PUSH1 0xA0 SHL SUB SWAP1 DUP2 AND DUP5 MSTORE DUP4 DUP3 ADD SWAP5 SWAP1 SWAP5 MSTORE PUSH1 0x40 SWAP3 DUP4 ADD DUP3 KECCAK256 PUSH1 0x1 SWAP1 DUP2 ADD SLOAD SWAP1 SWAP6 MSTORE DUP7 SLOAD DUP1 DUP7 ADD DUP9 SSTORE SWAP7 DUP3 MSTORE SWAP1 DUP2 SWAP1 KECCAK256 DUP6 MLOAD PUSH1 0x2 SWAP1 SWAP8 MUL ADD DUP1 SLOAD SWAP2 DUP7 ADD MLOAD ISZERO ISZERO PUSH1 0x1 PUSH1 0xA0 SHL MUL PUSH1 0x1 PUSH1 0x1 PUSH1 0xA8 SHL SUB NOT SWAP1 SWAP3 AND SWAP7 SWAP1 SWAP4 AND SWAP6 SWAP1 SWAP6 OR SWAP5 SWAP1 SWAP5 OR DUP2 SSTORE SWAP2 SWAP1 SWAP3 ADD MLOAD SWAP2 ADD SSTORE DUP1 PUSH2 0x72A DUP2 PUSH2 0xF40 JUMP JUMPDEST SWAP2 POP POP PUSH2 0x5E7 JUMP JUMPDEST POP PUSH1 0x0 JUMPDEST PUSH1 0x2 SLOAD DUP2 LT ISZERO PUSH2 0x7B7 JUMPI PUSH1 0x1 SLOAD PUSH1 0x2 DUP3 DUP2 SLOAD DUP2 LT PUSH2 0x756 JUMPI PUSH2 0x756 PUSH2 0xF2A JUMP JUMPDEST SWAP1 PUSH1 0x0 MSTORE PUSH1 0x20 PUSH1 0x0 KECCAK256 SWAP1 PUSH1 0x3 MUL ADD PUSH1 0x1 ADD SLOAD PUSH1 0x64 PUSH2 0x774 SWAP2 SWAP1 PUSH2 0xF5B JUMP JUMPDEST PUSH2 0x77E SWAP2 SWAP1 PUSH2 0xF7A JUMP JUMPDEST PUSH1 0x2 DUP3 DUP2 SLOAD DUP2 LT PUSH2 0x791 JUMPI PUSH2 0x791 PUSH2 0xF2A JUMP JUMPDEST PUSH1 0x0 SWAP2 DUP3 MSTORE PUSH1 0x20 SWAP1 SWAP2 KECCAK256 PUSH1 0x2 PUSH1 0x3 SWAP1 SWAP3 MUL ADD ADD SSTORE DUP1 PUSH2 0x7AF DUP2 PUSH2 0xF40 JUMP JUMPDEST SWAP2 POP POP PUSH2 0x736 JUMP JUMPDEST POP PUSH1 0x6 PUSH1 0x2 DUP2 DUP1 SLOAD DUP1 PUSH1 0x20 MUL PUSH1 0x20 ADD PUSH1 0x40 MLOAD SWAP1 DUP2 ADD PUSH1 0x40 MSTORE DUP1 SWAP3 SWAP2 SWAP1 DUP2 DUP2 MSTORE PUSH1 0x20 ADD PUSH1 0x0 SWAP1 JUMPDEST DUP3 DUP3 LT ISZERO PUSH2 0x839 JUMPI PUSH1 0x0 DUP5 DUP2 MSTORE PUSH1 0x20 SWAP1 DUP2 SWAP1 KECCAK256 PUSH1 0x40 DUP1 MLOAD PUSH1 0x60 DUP2 ADD DUP3 MSTORE PUSH1 0x2 DUP7 MUL SWAP1 SWAP3 ADD DUP1 SLOAD PUSH1 0x1 PUSH1 0x1 PUSH1 0xA0 SHL SUB DUP2 AND DUP5 MSTORE PUSH1 0x1 PUSH1 0xA0 SHL SWAP1 DIV PUSH1 0xFF AND ISZERO ISZERO DUP4 DUP6 ADD MSTORE PUSH1 0x1 SWAP1 DUP2 ADD SLOAD SWAP2 DUP4 ADD SWAP2 SWAP1 SWAP2 MSTORE SWAP1 DUP4 MSTORE SWAP1 SWAP3 ADD SWAP2 ADD PUSH2 0x7DD JUMP JUMPDEST POP POP POP POP SWAP2 POP DUP1 DUP1 SLOAD DUP1 PUSH1 0x20 MUL PUSH1 0x20 ADD PUSH1 0x40 MLOAD SWAP1 DUP2 ADD PUSH1 0x40 MSTORE DUP1 SWAP3 SWAP2 SWAP1 DUP2 DUP2 MSTORE PUSH1 0x20 ADD PUSH1 0x0 SWAP1 JUMPDEST DUP3 DUP3 LT ISZERO PUSH2 0x938 JUMPI DUP4 DUP3 SWAP1 PUSH1 0x0 MSTORE PUSH1 0x20 PUSH1 0x0 KECCAK256 SWAP1 PUSH1 0x3 MUL ADD PUSH1 0x40 MLOAD DUP1 PUSH1 0x60 ADD PUSH1 0x40 MSTORE SWAP1 DUP2 PUSH1 0x0 DUP3 ADD DUP1 SLOAD PUSH2 0x893 SWAP1 PUSH2 0xDDC JUMP JUMPDEST DUP1 PUSH1 0x1F ADD PUSH1 0x20 DUP1 SWAP2 DIV MUL PUSH1 0x20 ADD PUSH1 0x40 MLOAD SWAP1 DUP2 ADD PUSH1 0x40 MSTORE DUP1 SWAP3 SWAP2 SWAP1 DUP2 DUP2 MSTORE PUSH1 0x20 ADD DUP3 DUP1 SLOAD PUSH2 0x8BF SWAP1 PUSH2 0xDDC JUMP JUMPDEST DUP1 ISZERO PUSH2 0x90C JUMPI DUP1 PUSH1 0x1F LT PUSH2 0x8E1 JUMPI PUSH2 0x100 DUP1 DUP4 SLOAD DIV MUL DUP4 MSTORE SWAP2 PUSH1 0x20 ADD SWAP2 PUSH2 0x90C JUMP JUMPDEST DUP3 ADD SWAP2 SWAP1 PUSH1 0x0 MSTORE PUSH1 0x20 PUSH1 0x0 KECCAK256 SWAP1 JUMPDEST DUP2 SLOAD DUP2 MSTORE SWAP1 PUSH1 0x1 ADD SWAP1 PUSH1 0x20 ADD DUP1 DUP4 GT PUSH2 0x8EF JUMPI DUP3 SWAP1 SUB PUSH1 0x1F AND DUP3 ADD SWAP2 JUMPDEST POP POP POP POP POP DUP2 MSTORE PUSH1 0x20 ADD PUSH1 0x1 DUP3 ADD SLOAD DUP2 MSTORE PUSH1 0x20 ADD PUSH1 0x2 DUP3 ADD SLOAD DUP2 MSTORE POP POP DUP2 MSTORE PUSH1 0x20 ADD SWAP1 PUSH1 0x1 ADD SWAP1 PUSH2 0x860 JUMP JUMPDEST POP POP POP POP SWAP1 POP SWAP2 POP SWAP2 POP SWAP1 SWAP2 JUMP JUMPDEST PUSH1 0x60 PUSH1 0x0 DUP1 PUSH1 0x0 PUSH2 0x955 PUSH2 0xB3A JUMP JUMPDEST SWAP1 POP PUSH1 0x0 PUSH2 0x961 PUSH2 0x5CF JUMP JUMPDEST SWAP2 POP POP PUSH1 0x60 DUP1 PUSH1 0x0 DUP1 DUP6 PUSH1 0x1 EQ ISZERO PUSH2 0x9E7 JUMPI DUP5 PUSH1 0x0 DUP2 MLOAD DUP2 LT PUSH2 0x986 JUMPI PUSH2 0x986 PUSH2 0xF2A JUMP JUMPDEST PUSH1 0x20 MUL PUSH1 0x20 ADD ADD MLOAD PUSH1 0x0 ADD MLOAD SWAP3 POP DUP5 PUSH1 0x0 DUP2 MLOAD DUP2 LT PUSH2 0x9A7 JUMPI PUSH2 0x9A7 PUSH2 0xF2A JUMP JUMPDEST PUSH1 0x20 MUL PUSH1 0x20 ADD ADD MLOAD PUSH1 0x20 ADD MLOAD SWAP2 POP DUP5 PUSH1 0x0 DUP2 MLOAD DUP2 LT PUSH2 0x9C8 JUMPI PUSH2 0x9C8 PUSH2 0xF2A JUMP JUMPDEST PUSH1 0x20 SWAP1 DUP2 MUL SWAP2 SWAP1 SWAP2 ADD ADD MLOAD PUSH1 0x40 ADD MLOAD SWAP3 SWAP10 SWAP2 SWAP9 POP SWAP2 SWAP7 POP SWAP5 POP POP POP POP POP JUMP JUMPDEST DUP6 PUSH1 0x2 EQ ISZERO PUSH2 0xA45 JUMPI DUP5 PUSH1 0x1 DUP2 MLOAD DUP2 LT PUSH2 0xA03 JUMPI PUSH2 0xA03 PUSH2 0xF2A JUMP JUMPDEST PUSH1 0x20 MUL PUSH1 0x20 ADD ADD MLOAD PUSH1 0x0 ADD MLOAD SWAP3 POP DUP5 PUSH1 0x1 DUP2 MLOAD DUP2 LT PUSH2 0xA24 JUMPI PUSH2 0xA24 PUSH2 0xF2A JUMP JUMPDEST PUSH1 0x20 MUL PUSH1 0x20 ADD ADD MLOAD PUSH1 0x20 ADD MLOAD SWAP2 POP DUP5 PUSH1 0x1 DUP2 MLOAD DUP2 LT PUSH2 0x9C8 JUMPI PUSH2 0x9C8 PUSH2 0xF2A JUMP JUMPDEST DUP6 PUSH1 0x3 EQ ISZERO PUSH2 0xAC5 JUMPI PUSH1 0x40 MLOAD DUP1 PUSH1 0x40 ADD PUSH1 0x40 MSTORE DUP1 PUSH1 0x9 DUP2 MSTORE PUSH1 0x20 ADD PUSH9 0x497473206120746965 PUSH1 0xB8 SHL DUP2 MSTORE POP SWAP4 POP DUP5 PUSH1 0x0 DUP2 MLOAD DUP2 LT PUSH2 0xA85 JUMPI PUSH2 0xA85 PUSH2 0xF2A JUMP JUMPDEST PUSH1 0x20 MUL PUSH1 0x20 ADD ADD MLOAD PUSH1 0x20 ADD MLOAD SWAP2 POP DUP5 PUSH1 0x0 DUP2 MLOAD DUP2 LT PUSH2 0xAA6 JUMPI PUSH2 0xAA6 PUSH2 0xF2A JUMP JUMPDEST PUSH1 0x20 SWAP1 DUP2 MUL SWAP2 SWAP1 SWAP2 ADD ADD MLOAD PUSH1 0x40 ADD MLOAD SWAP4 SWAP10 SWAP2 SWAP9 POP SWAP3 SWAP7 POP SWAP5 POP POP POP POP POP JUMP JUMPDEST POP POP POP POP POP POP SWAP1 SWAP2 SWAP3 JUMP JUMPDEST PUSH1 0x0 DUP1 JUMPDEST PUSH1 0x5 SLOAD DUP2 LT ISZERO PUSH2 0xB31 JUMPI DUP3 PUSH1 0x1 PUSH1 0x1 PUSH1 0xA0 SHL SUB AND PUSH1 0x5 DUP3 DUP2 SLOAD DUP2 LT PUSH2 0xAFB JUMPI PUSH2 0xAFB PUSH2 0xF2A JUMP JUMPDEST PUSH1 0x0 SWAP2 DUP3 MSTORE PUSH1 0x20 SWAP1 SWAP2 KECCAK256 ADD SLOAD PUSH1 0x1 PUSH1 0x1 PUSH1 0xA0 SHL SUB AND EQ ISZERO PUSH2 0xB1F JUMPI POP PUSH1 0x1 SWAP3 SWAP2 POP POP JUMP JUMPDEST DUP1 PUSH2 0xB29 DUP2 PUSH2 0xF40 JUMP JUMPDEST SWAP2 POP POP PUSH2 0xAD4 JUMP JUMPDEST POP PUSH1 0x0 SWAP3 SWAP2 POP POP JUMP JUMPDEST PUSH1 0x0 DUP1 SLOAD PUSH1 0x4 PUSH1 0x20 MSTORE PUSH1 0x0 DUP1 MLOAD PUSH1 0x20 PUSH2 0xFBD DUP4 CODECOPY DUP2 MLOAD SWAP2 MSTORE SLOAD PUSH1 0x1 DUP4 MSTORE PUSH1 0x0 DUP1 MLOAD PUSH1 0x20 PUSH2 0xF9D DUP4 CODECOPY DUP2 MLOAD SWAP2 MSTORE SLOAD PUSH2 0xB71 SWAP2 SWAP1 PUSH2 0xF12 JUMP JUMPDEST EQ PUSH2 0xBB2 JUMPI PUSH1 0x40 MLOAD PUSH3 0x461BCD PUSH1 0xE5 SHL DUP2 MSTORE PUSH1 0x20 PUSH1 0x4 DUP3 ADD MSTORE PUSH1 0x11 PUSH1 0x24 DUP3 ADD MSTORE PUSH17 0x22B632B1BA34B7B7103737BA103330B4B9 PUSH1 0x79 SHL PUSH1 0x44 DUP3 ADD MSTORE PUSH1 0x64 ADD PUSH2 0x40C JUMP JUMPDEST PUSH1 0x3C PUSH2 0xBBC PUSH2 0xC70 JUMP JUMPDEST LT ISZERO PUSH2 0xBFE JUMPI PUSH1 0x40 MLOAD PUSH3 0x461BCD PUSH1 0xE5 SHL DUP2 MSTORE PUSH1 0x20 PUSH1 0x4 DUP3 ADD MSTORE PUSH1 0x11 PUSH1 0x24 DUP3 ADD MSTORE PUSH17 0x4E6F7420456E6F75676820766F74657273 PUSH1 0x78 SHL PUSH1 0x44 DUP3 ADD MSTORE PUSH1 0x64 ADD PUSH2 0x40C JUMP JUMPDEST PUSH1 0x4 PUSH1 0x20 MSTORE PUSH1 0x0 DUP1 MLOAD PUSH1 0x20 PUSH2 0xFBD DUP4 CODECOPY DUP2 MLOAD SWAP2 MSTORE SLOAD PUSH1 0x1 PUSH1 0x0 MSTORE PUSH1 0x0 DUP1 MLOAD PUSH1 0x20 PUSH2 0xF9D DUP4 CODECOPY DUP2 MLOAD SWAP2 MSTORE SLOAD GT ISZERO PUSH2 0xC34 JUMPI POP PUSH1 0x1 SWAP1 JUMP JUMPDEST PUSH1 0x4 PUSH1 0x20 MSTORE PUSH1 0x0 DUP1 MLOAD PUSH1 0x20 PUSH2 0xF9D DUP4 CODECOPY DUP2 MLOAD SWAP2 MSTORE SLOAD PUSH1 0x2 PUSH1 0x0 MSTORE PUSH1 0x0 DUP1 MLOAD PUSH1 0x20 PUSH2 0xFBD DUP4 CODECOPY DUP2 MLOAD SWAP2 MSTORE SLOAD GT ISZERO PUSH2 0xC6A JUMPI POP PUSH1 0x2 SWAP1 JUMP JUMPDEST POP PUSH1 0x3 SWAP1 JUMP JUMPDEST PUSH1 0x5 SLOAD PUSH1 0x1 DUP2 SWAP1 SSTORE PUSH1 0x0 DUP1 SLOAD SWAP1 SWAP2 DUP3 SWAP2 PUSH2 0xC8B SWAP1 PUSH1 0x64 PUSH2 0xF5B JUMP JUMPDEST PUSH2 0xC95 SWAP2 SWAP1 PUSH2 0xF7A JUMP JUMPDEST SWAP3 SWAP2 POP POP JUMP JUMPDEST POP DUP1 SLOAD PUSH1 0x0 DUP3 SSTORE PUSH1 0x2 MUL SWAP1 PUSH1 0x0 MSTORE PUSH1 0x20 PUSH1 0x0 KECCAK256 SWAP1 DUP2 ADD SWAP1 PUSH2 0xCBC SWAP2 SWAP1 PUSH2 0xCBF JUMP JUMPDEST POP JUMP JUMPDEST JUMPDEST DUP1 DUP3 GT ISZERO PUSH2 0xCE5 JUMPI DUP1 SLOAD PUSH1 0x1 PUSH1 0x1 PUSH1 0xA8 SHL SUB NOT AND DUP2 SSTORE PUSH1 0x0 PUSH1 0x1 DUP3 ADD SSTORE PUSH1 0x2 ADD PUSH2 0xCC0 JUMP JUMPDEST POP SWAP1 JUMP JUMPDEST PUSH1 0x0 PUSH1 0x20 DUP3 DUP5 SUB SLT ISZERO PUSH2 0xCFB JUMPI PUSH1 0x0 DUP1 REVERT JUMPDEST POP CALLDATALOAD SWAP2 SWAP1 POP JUMP JUMPDEST PUSH1 0x0 DUP2 MLOAD DUP1 DUP5 MSTORE PUSH1 0x0 JUMPDEST DUP2 DUP2 LT ISZERO PUSH2 0xD28 JUMPI PUSH1 0x20 DUP2 DUP6 ADD DUP2 ADD MLOAD DUP7 DUP4 ADD DUP3 ADD MSTORE ADD PUSH2 0xD0C JUMP JUMPDEST DUP2 DUP2 GT ISZERO PUSH2 0xD3A JUMPI PUSH1 0x0 PUSH1 0x20 DUP4 DUP8 ADD ADD MSTORE JUMPDEST POP PUSH1 0x1F ADD PUSH1 0x1F NOT AND SWAP3 SWAP1 SWAP3 ADD PUSH1 0x20 ADD SWAP3 SWAP2 POP POP JUMP JUMPDEST PUSH1 0x60 DUP2 MSTORE PUSH1 0x0 PUSH2 0xD62 PUSH1 0x60 DUP4 ADD DUP7 PUSH2 0xD02 JUMP JUMPDEST PUSH1 0x20 DUP4 ADD SWAP5 SWAP1 SWAP5 MSTORE POP PUSH1 0x40 ADD MSTORE SWAP2 SWAP1 POP JUMP JUMPDEST DUP1 CALLDATALOAD PUSH1 0x1 PUSH1 0x1 PUSH1 0xA0 SHL SUB DUP2 AND DUP2 EQ PUSH2 0xD8B JUMPI PUSH1 0x0 DUP1 REVERT JUMPDEST SWAP2 SWAP1 POP JUMP JUMPDEST PUSH1 0x0 PUSH1 0x20 DUP3 DUP5 SUB SLT ISZERO PUSH2 0xDA2 JUMPI PUSH1 0x0 DUP1 REVERT JUMPDEST PUSH2 0xDAB DUP3 PUSH2 0xD74 JUMP JUMPDEST SWAP4 SWAP3 POP POP POP JUMP JUMPDEST PUSH1 0x0 DUP1 PUSH1 0x40 DUP4 DUP6 SUB SLT ISZERO PUSH2 0xDC5 JUMPI PUSH1 0x0 DUP1 REVERT JUMPDEST PUSH2 0xDCE DUP4 PUSH2 0xD74 JUMP JUMPDEST SWAP5 PUSH1 0x20 SWAP4 SWAP1 SWAP4 ADD CALLDATALOAD SWAP4 POP POP POP JUMP JUMPDEST PUSH1 0x1 DUP2 DUP2 SHR SWAP1 DUP3 AND DUP1 PUSH2 0xDF0 JUMPI PUSH1 0x7F DUP3 AND SWAP2 POP JUMPDEST PUSH1 0x20 DUP3 LT DUP2 EQ ISZERO PUSH2 0xE11 JUMPI PUSH4 0x4E487B71 PUSH1 0xE0 SHL PUSH1 0x0 MSTORE PUSH1 0x22 PUSH1 0x4 MSTORE PUSH1 0x24 PUSH1 0x0 REVERT JUMPDEST POP SWAP2 SWAP1 POP JUMP JUMPDEST PUSH1 0x0 PUSH1 0x20 DUP1 DUP4 ADD DUP2 DUP5 MSTORE DUP1 DUP6 MLOAD DUP1 DUP4 MSTORE PUSH1 0x40 SWAP3 POP DUP3 DUP7 ADD SWAP2 POP DUP3 DUP2 PUSH1 0x5 SHL DUP8 ADD ADD DUP5 DUP9 ADD PUSH1 0x0 JUMPDEST DUP4 DUP2 LT ISZERO PUSH2 0xE8A JUMPI PUSH1 0x3F NOT DUP10 DUP5 SUB ADD DUP6 MSTORE DUP2 MLOAD PUSH1 0x60 DUP2 MLOAD DUP2 DUP7 MSTORE PUSH2 0xE64 DUP3 DUP8 ADD DUP3 PUSH2 0xD02 JUMP JUMPDEST DUP4 DUP12 ADD MLOAD DUP8 DUP13 ADD MSTORE SWAP3 DUP10 ADD MLOAD SWAP6 DUP10 ADD SWAP6 SWAP1 SWAP6 MSTORE POP SWAP5 DUP8 ADD SWAP5 SWAP3 POP SWAP1 DUP7 ADD SWAP1 PUSH1 0x1 ADD PUSH2 0xE3E JUMP JUMPDEST POP SWAP1 SWAP9 SWAP8 POP POP POP POP POP POP POP POP JUMP JUMPDEST PUSH1 0x20 DUP1 DUP3 MSTORE DUP3 MLOAD DUP3 DUP3 ADD DUP2 SWAP1 MSTORE PUSH1 0x0 SWAP2 SWAP1 PUSH1 0x40 SWAP1 DUP2 DUP6 ADD SWAP1 DUP7 DUP5 ADD DUP6 JUMPDEST DUP3 DUP2 LT ISZERO PUSH2 0xEEF JUMPI DUP2 MLOAD DUP1 MLOAD PUSH1 0x1 PUSH1 0x1 PUSH1 0xA0 SHL SUB AND DUP6 MSTORE DUP7 DUP2 ADD MLOAD ISZERO ISZERO DUP8 DUP7 ADD MSTORE DUP6 ADD MLOAD DUP6 DUP6 ADD MSTORE PUSH1 0x60 SWAP1 SWAP4 ADD SWAP3 SWAP1 DUP6 ADD SWAP1 PUSH1 0x1 ADD PUSH2 0xEB5 JUMP JUMPDEST POP SWAP2 SWAP8 SWAP7 POP POP POP POP POP POP POP JUMP JUMPDEST PUSH4 0x4E487B71 PUSH1 0xE0 SHL PUSH1 0x0 MSTORE PUSH1 0x11 PUSH1 0x4 MSTORE PUSH1 0x24 PUSH1 0x0 REVERT JUMPDEST PUSH1 0x0 DUP3 NOT DUP3 GT ISZERO PUSH2 0xF25 JUMPI PUSH2 0xF25 PUSH2 0xEFC JUMP JUMPDEST POP ADD SWAP1 JUMP JUMPDEST PUSH4 0x4E487B71 PUSH1 0xE0 SHL PUSH1 0x0 MSTORE PUSH1 0x32 PUSH1 0x4 MSTORE PUSH1 0x24 PUSH1 0x0 REVERT JUMPDEST PUSH1 0x0 PUSH1 0x0 NOT DUP3 EQ ISZERO PUSH2 0xF54 JUMPI PUSH2 0xF54 PUSH2 0xEFC JUMP JUMPDEST POP PUSH1 0x1 ADD SWAP1 JUMP JUMPDEST PUSH1 0x0 DUP2 PUSH1 0x0 NOT DIV DUP4 GT DUP3 ISZERO ISZERO AND ISZERO PUSH2 0xF75 JUMPI PUSH2 0xF75 PUSH2 0xEFC JUMP JUMPDEST POP MUL SWAP1 JUMP JUMPDEST PUSH1 0x0 DUP3 PUSH2 0xF97 JUMPI PUSH4 0x4E487B71 PUSH1 0xE0 SHL PUSH1 0x0 MSTORE PUSH1 0x12 PUSH1 0x4 MSTORE PUSH1 0x24 PUSH1 0x0 REVERT JUMPDEST POP DIV SWAP1 JUMP INVALID 0xAB 0xD6 0xE7 0xCB POP SWAP9 0x4F 0xF9 0xC2 RETURN 0xE1 DUP11 0x26 PUSH1 0xC3 CALLDATALOAD RETURNDATASIZE 0xAD DELEGATECALL 0xE3 0x29 SAR 0xEE 0xB2 PUSH22 0xDAE2CD1E44FE0591DA3FD0782E51C6B3986E9E672FD5 PUSH7 0x868E71F3DBC2D6 0xC2 0xCD PUSH16 0xBB3E361AF2A7A2646970667358221220 DUP15 PUSH31 0x747C7DF63F7613C04FA9D3FBD7D05D121CBCA246675B54363FC5609E06CB64 PUSH20 0x6F6C634300080B00330000000000000000000000 ",
  "sha1": "d95ff4878afd9ca57d85202b120b3255e5bbb043",
  "source": "// SPDX-License-Identifier: MIT\npragma solidity ^0.8.0;\n\ncontract President {\n    uint256 totalVotes;\n    uint256 totalVoters;\n    Candidate[] public candidates;\n    mapping(address => Voter) public voters;\n    mapping(uint256 => uint256) public tally;\n    address [] public registeredVoters;\n    Voter[] public voterRegister;\n   \n\n    struct Candidate {\n        string name;\n        uint256 voteCount;\n        uint256 votePercentage;\n    }\n\n    struct Voter {\n        address votersAddress;\n        bool voted;\n        uint256 vote;\n    }\n\n    event AnnounceWinner(string, uint256, uint256);\n    // event voteCast(address voter, uint256 candidateChosen);\n    event ShowVoters(Voter[]);\n    event ShowCandidates(Candidate[]);\n\n    // Get a voter address from the passed in array of voter address and map them to a Voter object with\n    // their vote satus being false\n\n\n    function addVoter(address voter) private {\n        voters[voter].voted = false;\n        voters[voter].vote = 0;\n    }\n\n    function exist(address voterAddress) private view returns (bool) {\n        for (uint256 i = 0; i < registeredVoters.length; i++) {\n            if (registeredVoters[i] == voterAddress) {\n                return true;\n            } \n        }\n\n        return false;\n    }\n\n    constructor(string [] memory candidatesNames, address [] memory voterAddresses) {\n        for (uint256 i = 0; i < candidatesNames.length; i++) {\n            candidates.push(Candidate({\n                name: candidatesNames[i],\n                voteCount: 0,\n                votePercentage: 0\n            }));\n        }\n        for (uint256 j = 0; j < voterAddresses.length; j++) {\n            addVoter(voterAddresses[j]);\n            registeredVoters.push(voterAddresses[j]);\n        }\n    }\n\n    function getVotersResults() public {\n        Voter[] memory updatedRegister;\n        (updatedRegister, ) = tallyResults();\n\n        emit ShowVoters(updatedRegister);\n    }\n\n      function getCandidatesResults() public {\n        Candidate[] memory updatedResults;\n        ( ,updatedResults) = tallyResults();\n\n        emit ShowCandidates(updatedResults);\n    }\n\n    // Enable voters to vote on their candidate of choice\n\n    function castVote(address _voter, uint256 _candidate) public {\n        require(exist(_voter), \"Not an eligible voter\");\n        require(!voters[_voter].voted, \"Already voted\");\n\n        voters[_voter].voted = true;\n        voters[_voter].vote = _candidate;\n\n        // emit voteCast(_voter, _candidate);\n\n\n        if (voters[_voter].vote == 1) {\n            tally[1] += 1;\n            totalVotes = totalVotes + 1;\n            candidates[0].voteCount = tally[1];\n\n        } else if (voters[_voter].vote == 2) {\n            tally[2] += 1;\n            totalVotes = totalVotes + 1;\n            candidates[1].voteCount = tally[2];\n\n        } else {\n            revert();\n        }\n    }\n\n    // Get the percentage Voter Turnout\n\n    function voterTurnout() private returns (uint256){\n        uint256 percentageTurnout;\n        totalVoters = registeredVoters.length;\n\n        percentageTurnout = (totalVotes * 100) / totalVoters;\n\n        \n        return (percentageTurnout);\n\n    }\n\n    // Make Sure that at least 60% of registered voters cast their votes to make the election valid\n\n    function tallyResults() private returns(Voter[] memory, Candidate[] memory){\n        delete voterRegister;\n        totalVoters = registeredVoters.length;\n\n        for (uint256 x = 0; x < registeredVoters.length; x++) {\n            voterRegister.push(Voter({\n                votersAddress: registeredVoters[x],\n                voted: voters[registeredVoters[x]].voted,\n                vote: voters[registeredVoters[x]].vote\n            }));\n        }\n        \n        for (uint256 y = 0; y < candidates.length; y++) {\n        candidates[y].votePercentage = (candidates[y].voteCount * 100) / totalVoters;\n        }\n\n        return(voterRegister, candidates);\n\n    }\n\n\n    function getWinner() private returns (uint256) {\n        require(tally[1] + tally[2] == totalVotes, \"Election not fair\");\n        require(voterTurnout() >= 60, \"Not Enough voters\");\n        \n\n        if (tally[1] > tally[2]) {\n            return 1;\n        } else if (tally[2] > tally[1]) {\n            return 2;\n        } else {\n            return 3;\n        }\n    }\n\n    // Announce the winner \n\n    function announceWinner() private returns (string memory, uint256, uint256){\n        uint256 result = getWinner();\n        ( , Candidate[] memory _candidates) = tallyResults();\n        string memory message;\n        string memory winnerName;\n        uint256 winnerVotes;\n        uint256 winningMargin;\n\n        if (result == 1) {\n            winnerName = _candidates[0].name;\n            winnerVotes = _candidates[0].voteCount;\n            winningMargin = _candidates[0].votePercentage;\n            \n            return (winnerName, winnerVotes, winningMargin);\n        } else if (result == 2) {\n            winnerName = _candidates[1].name;\n            winnerVotes = _candidates[1].voteCount;\n            winningMargin = _candidates[1].votePercentage;\n            \n            return (winnerName, winnerVotes, winningMargin);  \n        } else if (result == 3) {\n            message = \"Its a tie\";\n            winnerVotes = _candidates[0].voteCount;\n            winningMargin = _candidates[0].votePercentage;\n\n            return (message, winnerVotes, winningMargin);\n        }\n    }\n\n    function sendData() public {\n        (string memory Name, uint256 voteGot, uint256 margin) = announceWinner();\n        emit AnnounceWinner(Name, voteGot, margin);\n        \n    }\n}",
  "sourcePath": "contracts/Voting.sol",
  "type": "contract"
}